EmployeeKey ParentEmployeeKey EmployeeNationalIDAlternateKey ParentEmployeeNationalIDAlternateKey SalesTerritoryKey FirstName                                          LastName                                           MiddleName                                         NameStyle Title                                              HireDate   BirthDate  LoginID                                                                                                                                                                                                                                                          EmailAddress                                       Phone                     MaritalStatus EmergencyContactName                               EmergencyContactPhone     SalariedFlag Gender PayFrequency BaseRate              VacationHours SickLeaveHours CurrentFlag SalespersonFlag DepartmentName                                     StartDate  EndDate    Status                                             EmployeePhoto
----------- ----------------- ------------------------------ ------------------------------------ ----------------- -------------------------------------------------- -------------------------------------------------- -------------------------------------------------- --------- -------------------------------------------------- ---------- ---------- ---------------------------------------------------------------------------------------------------------------------------------------------------------------------------------------------------------------------------------------------------------------- -------------------------------------------------- ------------------------- ------------- -------------------------------------------------- ------------------------- ------------ ------ ------------ --------------------- ------------- -------------- ----------- --------------- -------------------------------------------------- ---------- ---------- -------------------------------------------------- ----------------------------------------------------------------------------------------------------------------------------------------------------------------------------------------------------------------------------------------------------------------
1           18                14417807                       NULL                                 11                Guy                                                Gilbert                                            R                                                  0         Production Technician - WC60                       2012-01-28 1992-11-12 adventure-works\guy1                                                                                                                                                                                                                                             guy1@adventure-works.com                           320-555-0195              M             Guy Gilbert                                        320-555-0195              0            M      1            12,45                 21            30             1           0               Production                                         2012-01-28 NULL       Current                                            0xFFD8FFE000104A46494600010101004800480000FFED00D850686F746F73686F7020332E30003842494D04040000000000BC1C015A00031B25471C0200000200021C0278003B5375636365737366756C206D617475726520627573696E657373206D616E20776974682068616E647320666F6C646564206F76657220776869
2           7                 253022876                      NULL                                 11                Kevin                                              Brown                                              F                                                  0         Marketing Assistant                                2012-08-26 1997-12-01 adventure-works\kevin0                                                                                                                                                                                                                                           kevin0@adventure-works.com                         150-555-0189              S             Kevin Brown                                        150-555-0189              0            M      2            13,4615               42            41             1           0               Marketing                                          2012-08-26 NULL       Current                                            0xFFD8FFE000104A46494600010101004800480000FFED020450686F746F73686F7020332E30003842494D04040000000001C31C015A00031B25471C0200000200021C0278004B536D696C696E6720636F6E666964656E74206D6174757265206D616E20696E2061206C696272617279206C6F6F6B696E672061742063616D65
3           14                509647174                      NULL                                 11                Roberto                                            Tamburello                                         NULL                                               0         Engineering Manager                                2013-06-11 1985-06-12 adventure-works\roberto0                                                                                                                                                                                                                                         roberto0@adventure-works.com                       212-555-0187              M             Roberto Tamburello                                 212-555-0187              1            M      2            43,2692               2             21             1           0               Engineering                                        2013-06-11 NULL       Current                                            0xFFD8FFE000104A4649460001010100FA00FA0000FFED014A50686F746F73686F7020332E30003842494D040400000000012D1C015A00031B25471C0200000200021C0219000343524D1C0219000B456C656374726F6E6963731C02190011536F6369616C204E6574776F726B696E671C0219000E4469676974616C2043616D
4           3                 112457891                      NULL                                 11                Rob                                                Walters                                            NULL                                               0         Senior Tool Designer                               2013-07-05 1985-07-23 adventure-works\rob0                                                                                                                                                                                                                                             rob0@adventure-works.com                           612-555-0100              S             Rob Walters                                        612-555-0100              0            M      2            29,8462               48            80             1           0               Tool Design                                        2013-07-05 2015-12-28 NULL                                               0xFFD8FFE000104A46494600010101004800480000FFED01B050686F746F73686F7020332E30003842494D04040000000001931C015A00031B25471C0200000200021C0278002E436C6F7365757020706F727472616974206F66206120736D61727420796F756E6720627573696E657373206D616E1C02690004393238351C02
4           3                 112457891                      NULL                                 11                Rob                                                Walters                                            NULL                                               0         Senior Tool Designer                               2013-07-05 1985-07-23 adventure-works\rob0                                                                                                                                                                                                                                             rob0@adventure-works.com                           612-555-0100              S             Rob Walters                                        612-555-0100              0            M      2            29,8462               48            80             1           0               Tool Design                                        2015-12-28 NULL       Current                                            0xFFD8FFE000104A46494600010101004800480000FFED01B050686F746F73686F7020332E30003842494D04040000000001931C015A00031B25471C0200000200021C0278002E436C6F7365757020706F727472616974206F66206120736D61727420796F756E6720627573696E657373206D616E1C02690004393238351C02
6           267               480168528                      NULL                                 11                Thierry                                            D'Hers                                             B                                                  0         Tool Designer                                      2013-07-11 1970-02-26 adventure-works\thierry0                                                                                                                                                                                                                                         thierry0@adventure-works.com                       168-555-0183              M             Thierry D'Hers                                     168-555-0183              0            M      2            25,00                 9             24             1           0               Tool Design                                        2013-07-11 NULL       Current                                            0xFFD8FFE000104A46494600010101004800480000FFED019E50686F746F73686F7020332E30003842494D04040000000001811C015A00031B25471C0200000200021C02780021536D696C696E672066616365206F66206120686170707920796F756E67206D616E1C02690004383134351C0250000C47656F72676520446F79
7           112               24756624                       NULL                                 11                David                                              Bradley                                            M                                                  0         Marketing Manager                                  2013-07-20 1985-10-17 adventure-works\david0                                                                                                                                                                                                                                           david0@adventure-works.com                         913-555-0172              S             David Bradley                                      913-555-0172              1            M      2            37,50                 40            40             1           0               Marketing                                          2013-07-20 2015-02-11 NULL                                               0xFFD8FFE000104A46494600010101012C012C0000FFED01D850686F746F73686F7020332E30003842494D04040000000001BC1C015A00031B25471C0200000200021C0278001F416E20496E6469616E20627573696E6573736D616E20696E206120737569741C0250000C416A617920426861736B61721C02050012496E6469
8           112               24756624                       NULL                                 11                David                                              Bradley                                            M                                                  0         Marketing Manager                                  2013-07-20 1985-10-17 adventure-works\david0                                                                                                                                                                                                                                           david0@adventure-works.com                         913-555-0172              S             David Bradley                                      913-555-0172              1            M      2            37,50                 40            40             1           0               Marketing                                          2015-02-12 NULL       Current                                            0xFFD8FFE000104A46494600010101012C012C0000FFED01D850686F746F73686F7020332E30003842494D04040000000001BC1C015A00031B25471C0200000200021C0278001F416E20496E6469616E20627573696E6573736D616E20696E206120737569741C0250000C416A617920426861736B61721C02050012496E6469
9           23                309738752                      NULL                                 11                JoLynn                                             Dobney                                             M                                                  0         Production Supervisor - WC60                       2013-07-26 1966-08-16 adventure-works\jolynn0                                                                                                                                                                                                                                          jolynn0@adventure-works.com                        903-555-0145              S             JoLynn Dobney                                      903-555-0145              0            F      2            25,00                 82            61             1           0               Production                                         2013-07-26 NULL       Current                                            0xFFD8FFE000104A46494600010101004800480000FFED01D050686F746F73686F7020332E30003842494D04040000000001B31C015A00031B25471C0200000200021C0278003D436F6E666964656E7420686170707920796F756E67204166726963616E20416D65726963616E20627573696E65737320776F6D616E20736D69
10          189               690627818                      NULL                                 11                Ruth                                               Ellerbrock                                         Ann                                                0         Production Technician - WC10                       2013-08-06 1967-01-03 adventure-works\ruth0                                                                                                                                                                                                                                            ruth0@adventure-works.com                          145-555-0130              M             Ruth Ellerbrock                                    145-555-0130              0            F      1            13,45                 83            61             1           0               Production                                         2013-08-06 NULL       Current                                            0xFFD8FFE000104A4649460001010100F000F00000FFED019850686F746F73686F7020332E30003842494D040400000000017B1C015A00031B25471C0200000200021C0278000B596F756E6720776F6D616E1C02500012567961636865736C617620536872616D6B6F1C0205000B596F756E6720776F6D616E1C021900104E65
11          3                 695256908                      NULL                                 11                Gail                                               Erickson                                           A                                                  0         Design Engineer                                    2013-08-06 1963-04-27 adventure-works\gail0                                                                                                                                                                                                                                            gail0@adventure-works.com                          849-555-0139              M             Gail Erickson                                      849-555-0139              1            F      2            32,6923               5             22             1           0               Engineering                                        2013-08-06 NULL       Current                                            0xFFD8FFE000104A46494600010101012C012C0000FFED016A50686F746F73686F7020332E30003842494D040400000000014D1C015A00031B25471C0200000200021C0278000E416E6E65747465206F66666963651C0237000832303136303631311C021900104E65772050726F6475637420496465611C0219001D54657374
12          189               912265825                      NULL                                 11                Barry                                              Johnson                                            K                                                  0         Production Technician - WC10                       2013-08-07 1966-10-25 adventure-works\barry0                                                                                                                                                                                                                                           barry0@adventure-works.com                         206-555-0180              S             Barry Johnson                                      206-555-0180              0            M      1            13,45                 88            64             1           0               Production                                         2013-08-07 NULL       Current                                            0xFFD8FFE000104A46494600010101012C012C0000FFDB0043000201010201010202020202020202030503030303030604040305070607070706070708090B0908080A0807070A0D0A0A0B0C0C0C0C07090E0F0D0C0E0B0C0C0CFFDB004301020202030303060303060C0807080C0C0C0C0C0C0C0C0C0C0C0C0C0C0C0C0C0C0C
13          3                 998320692                      NULL                                 11                Jossef                                             Goldberg                                           H                                                  0         Design Engineer                                    2013-08-24 1969-10-09 adventure-works\jossef0                                                                                                                                                                                                                                          jossef0@adventure-works.com                        122-555-0189              M             Jossef Goldberg                                    122-555-0189              1            M      2            32,6923               6             23             1           0               Engineering                                        2013-08-24 NULL       Current                                            0xFFD8FFE000104A46494600010101004800480000FFED020450686F746F73686F7020332E30003842494D04040000000001E81C015A00031B25471C0200000200021C02780051706F727472616974206F662068616E64736F6D6520627573696E6573732065786563757469766520696E20737569742069736F6C6174656420
14          112               245797967                      NULL                                 11                Terri                                              Duffy                                              Lee                                                0         Vice President of Engineering                      2013-08-31 1982-03-01 adventure-works\terri0                                                                                                                                                                                                                                           terri0@adventure-works.com                         819-555-0175              S             Terri Duffy                                        819-555-0175              1            F      2            63,4615               1             20             1           0               Engineering                                        2013-08-31 NULL       Current                                            0xFFD8FFE000104A46494600010101012C012C0000FFE110784578696600004D4D002A00000008000A010F00020000001200000086011000020000000A00000098011200030000000100010000011A000500000001000000A2011B000500000001000000AA012800030000000100020000013100020000001B000000B2013200
15          189               844973625                      NULL                                 11                Sidney                                             Higa                                               M                                                  0         Production Technician - WC10                       2013-09-02 1967-03-30 adventure-works\sidney0                                                                                                                                                                                                                                          sidney0@adventure-works.com                        424-555-0189              M             Sidney Higa                                        424-555-0189              0            M      1            13,45                 84            62             1           0               Production                                         2013-09-02 NULL       Current                                            0xFFD8FFE000104A46494600010101004800480000FFDB0043000201010201010202020202020202030503030303030604040305070607070706070708090B0908080A0807070A0D0A0A0B0C0C0C0C07090E0F0D0C0E0B0C0C0CFFDB004301020202030303060303060C0807080C0C0C0C0C0C0C0C0C0C0C0C0C0C0C0C0C0C0C
16          23                233069302                      NULL                                 11                Taylor                                             Maxwell                                            R                                                  0         Production Supervisor - WC50                       2013-09-08 1966-10-31 adventure-works\taylor0                                                                                                                                                                                                                                          taylor0@adventure-works.com                        508-555-0165              M             Taylor Maxwell                                     508-555-0165              0            M      2            25,00                 79            59             1           0               Production                                         2013-09-08 NULL       Current                                            0xFFD8FFE000104A4649460001010100F000F00000FFED01E650686F746F73686F7020332E30003842494D04040000000001CA1C015A00031B25471C0200000200021C02780039627573696E6573736D616E20686F6C64696E6720706170657220616E6420736D696C696E67202F2069736F6C61746564206F6E207768697465
17          189               132674823                      NULL                                 11                Jeffrey                                            Ford                                               L                                                  0         Production Technician - WC10                       2013-09-20 1967-02-09 adventure-works\jeffrey0                                                                                                                                                                                                                                         jeffrey0@adventure-works.com                       984-555-0185              S             Jeffrey Ford                                       984-555-0185              0            M      1            13,45                 85            62             1           0               Production                                         2013-09-20 NULL       Current                                            0xFFD8FFE000104A46494600010101006000600000FFDB004300080606070605080707070909080A0C140D0C0B0B0C1912130F141D1A1F1E1D1A1C1C20242E2720222C231C1C2837292C30313434341F27393D38323C2E333432FFDB0043010909090C0B0C180D0D1832211C2132323232323232323232323232323232323232
18          23                446466105                      NULL                                 BB                Jo                                                 Brown                                              A                                                  0         Production Supervisor - WC60                       2013-09-27 1967-05-08 adventure-works\jo0                                                                                                                                                                                                                                              jo0@adventure-works.com                            632-555-0129              S             Jo Brown                                           632-555-0129              0            F      2            25,00                 80            60             1           0               Production                                         2013-09-27 NULL       Current                                            0xFFD8FFE000104A46494600010101004800480000FFED01AA50686F746F73686F7020332E30003842494D040400000000018D1C015A00031B25471C0200000200021C0278003B506F727472616974206F66206861707079206D617475726520627573696E65737320776F6D616E20776F726B696E67206F6E2061206C617074
19          189               565090917                      NULL                                 11                Doris                                              Hartwig                                            M                                                  0         Production Technician - WC10                       2013-10-09 1966-11-03 adventure-works\doris0                                                                                                                                                                                                                                           doris0@adventure-works.com                         328-555-0150              M             Doris Hartwig                                      328-555-0150              0            F      1            13,45                 86            63             1           0               Production                                         2013-10-09 NULL       Current                                            0xFFD8FFE000104A46494600010101012C012C0000FFED008650686F746F73686F7020332E30003842494D040400000000004A1C015A00031B25471C0200000200021C0250000F4461766964204A2E2043657276656E1C02740022C2A9204461766964204A2E2043657276656E202D2053747564696F20416C74697573384249
20          23                494170342                      NULL                                 11                John                                               Campbell                                           T                                                  0         Production Supervisor - WC60                       2013-10-16 1967-03-07 adventure-works\john0                                                                                                                                                                                                                                            john0@adventure-works.com                          435-555-0113              M             John Campbell                                      435-555-0113              0            M      2            25,00                 81            60             1           0               Production                                         2013-10-16 NULL       Current                                            0xFFD8FFE000104A46494600010101012C012C0000FFED006450686F746F73686F7020332E30003842494D04040000000000471C015A00031B25471C0200000200021C0278001A506F727472616974206F66206120627573696E6573736D616E2E1C02050014427573696E6573736D616E20506F72747261697400FFDB004300
21          189               9659517                        NULL                                 11                Diane                                              Glimp                                              R                                                  0         Production Technician - WC10                       2013-10-27 1966-10-28 adventure-works\diane0                                                                                                                                                                                                                                           diane0@adventure-works.com                         202-555-0151              M             Diane Glimp                                        202-555-0151              0            F      1            13,45                 87            63             1           0               Production                                         2013-10-27 NULL       Current                                            0xFFD8FFE000104A46494600010101004800480000FFED005C50686F746F73686F7020332E30003842494D04040000000000401C015A00031B25471C0200000200021C021900114368616E6765204D616E6167656D656E741C0219000E4469676974616C2043616D6572611C0219000343524DFFDB0043000201010201010202
22          177               443968955                      NULL                                 11                Steven                                             Selikoff                                           T                                                  0         Production Technician - WC30                       2014-07-01 1987-12-12 adventure-works\steven0                                                                                                                                                                                                                                          steven0@adventure-works.com                        925-555-0114              M             Steven Selikoff                                    925-555-0114              0            M      1            9,50                  41            40             1           0               Production                                         2014-07-01 NULL       Current                                            0xFFD8FFE000104A46494600010101004800480000FFED01CA50686F746F73686F7020332E30003842494D04040000000001AE1C015A00031B25471C0200000200021C02780047506F727472616974206F66206120796F756E6720636F6E666964656E7420686170707920627573696E6573736D616E20636F6D6D756E696361
23          112               277173473                      NULL                                 CC                Peter                                              Krebs                                              J                                                  0         Production Control Manager                         2014-07-01 1993-06-03 adventure-works\peter0                                                                                                                                                                                                                                           peter0@adventure-works.com                         913-555-0196              M             Peter Krebs                                        913-555-0196              1            M      2            24,5192               43            41             1           0               Production Control                                 2014-07-01 NULL       Current                                            0xFFD8FFE000104A46494600010101004800480000FFED012A50686F746F73686F7020332E30003842494D040400000000010D1C015A00031B25471C0200000200021C02780032506F727472616974206F662061206861707079207375636365737366756C206D617475726520627573696E657373206D616E1C026900043833
24          201               835460180                      NULL                                 11                Stuart                                             Munson                                             V                                                  0         Production Technician - WC45                       2014-07-02 1973-04-13 adventure-works\stuart0                                                                                                                                                                                                                                          stuart0@adventure-works.com                        413-555-0136              S             Stuart Munson                                      413-555-0136              0            M      1            10,00                 84            62             1           0               Production                                         2014-07-02 NULL       Current                                            0xFFD8FFE000104A46494600010101004800480000FFDB0043000201010201010202020202020202030503030303030604040305070607070706070708090B0908080A0807070A0D0A0A0B0C0C0C0C07090E0F0D0C0E0B0C0C0CFFDB004301020202030303060303060C0807080C0C0C0C0C0C0C0C0C0C0C0C0C0C0C0C0C0C0C
25          201               687685941                      NULL                                 11                Greg                                               Alderson                                           F                                                  0         Production Technician - WC45                       2014-07-02 1986-11-15 adventure-works\greg0                                                                                                                                                                                                                                            greg0@adventure-works.com                          332-555-0150              S             Greg Alderson                                      332-555-0150              0            M      1            10,00                 85            62             1           0               Production                                         2014-07-02 NULL       Current                                            0xFFD8FFE000104A46494600010101015E015E0000FFED014A50686F746F73686F7020332E30003842494D040400000000012D1C015A00031B25471C0200000200021C0219000343524D1C0219000B456C656374726F6E6963731C02190011536F6369616C204E6574776F726B696E671C0219000E4469676974616C2043616D
26          188               498138869                      NULL                                 11                David                                              Johnson                                            N                                                  0         Production Technician - WC30                       2014-07-02 1990-06-02 adventure-works\david1                                                                                                                                                                                                                                           david1@adventure-works.com                         166-555-0162              S             David Johnson                                      166-555-0162              0            M      1            9,50                  25            32             1           0               Production                                         2014-07-02 NULL       Current                                            0xFFD8FFE000104A46494600010101004800480000FFED01DE50686F746F73686F7020332E30003842494D04040000000001C11C015A00031B25471C0200000200021C02780049436C6F736575702070686F746F206F66206120636865657266756C20627573696E6573736D616E2069736F6C6174656420616761696E737420
27          23                360868122                      NULL                                 11                Zheng                                              Mu                                                 W                                                  0         Production Supervisor - WC10                       2014-07-03 1994-05-26 adventure-works\zheng0                                                                                                                                                                                                                                           zheng0@adventure-works.com                         113-555-0173              S             Zheng Mu                                           113-555-0173              0            M      2            25,00                 66            53             1           0               Production                                         2014-07-03 NULL       Current                                            0xFFD8FFE000104A46494600010101012C012C0000FFED019250686F746F73686F7020332E30003842494D04040000000001531C015A00031B25471C0200000200021C0250000E4D69636861656C2044654C656F6E1C021900104E65772050726F6475637420496465611C0219001D546573742044726976656E20446576656C
28          111               964089218                      NULL                                 11                Ivo                                                Salmre                                             William                                            0         Production Technician - WC20                       2014-07-04 1992-08-03 adventure-works\ivo0                                                                                                                                                                                                                                             ivo0@adventure-works.com                           115-555-0179              M             Ivo Salmre                                         115-555-0179              0            M      1            14,00                 9             24             1           0               Production                                         2014-07-04 NULL       Current                                            0xFFD8FFE000104A46494600010101012C012C0000FFED00B650686F746F73686F7020332E30003842494D04040000000000991C015A00031B25471C0200000200021C02780047506F727472616974206F66206120796F756E67206174747261637469766520627573696E6573736D616E206E65787420746F206120636F7270
29          89                384162788                      NULL                                 11                Paul                                               Komosinski                                         B                                                  0         Production Technician - WC40                       2014-07-04 1991-06-13 adventure-works\paul0                                                                                                                                                                                                                                            paul0@adventure-works.com                          147-555-0160              S             Paul Komosinski                                    147-555-0160              0            M      1            15,00                 68            54             1           0               Production                                         2014-07-04 NULL       Current                                            0xFFD8FFE000104A46494600010101012C012C0000FFED014A50686F746F73686F7020332E30003842494D040400000000012D1C015A00031B25471C0200000200021C021900104E65772050726F6475637420496465611C0219001D546573742044726976656E20446576656C6F706D656E742028544444291C0219000F4E65
30          154               749389530                      NULL                                 11                Ashvini                                            Sharma                                             R                                                  0         Network Administrator                              2014-07-04 1987-10-25 adventure-works\ashvini0                                                                                                                                                                                                                                         ashvini0@adventure-works.com                       656-555-0119              S             Ashvini Sharma                                     656-555-0119              0            M      2            32,4519               70            55             1           0               Information Services                               2014-07-04 NULL       Current                                            0xFFD8FFE000104A46494600010101004800480000FFED00DE50686F746F73686F7020332E30003842494D04040000000000C21C015A00031B25471C0200000200021C0278002F73656C66206173737572656420627573696E657373206D616E2074616B696E6720612072656C6178656420706F73651C0205000C72656C6178
31          16                571658797                      NULL                                 11                Kendall                                            Keil                                               C                                                  0         Production Technician - WC50                       2014-07-05 1996-12-28 adventure-works\kendall0                                                                                                                                                                                                                                         kendall0@adventure-works.com                       138-555-0128              M             Kendall Keil                                       138-555-0128              0            M      1            11,00                 11            25             1           0               Production                                         2014-07-05 NULL       Current                                            0xFFD8FFE000104A46494600010101004800480000FFED017C50686F746F73686F7020332E30003842494D040400000000015F1C015A00031B25471C0200000200021C02780028596F756E6720627573696E657373206D616E20776F726B696E6720696E20746865206F66666963651C02050017506F727472616974206F6620
32          143               535145551                      NULL                                 11                Paula                                              Barreto de Mattos                                  M                                                  0         Human Resources Manager                            2014-07-06 1986-09-11 adventure-works\paula0                                                                                                                                                                                                                                           paula0@adventure-works.com                         523-555-0175              M             Paula Barreto de Mattos                            523-555-0175              1            F      2            27,1394               54            47             1           0               Human Resources                                    2014-07-06 NULL       Current                                            0xFFD8FFE000104A4649460001010100F000F00000FFED00A850686F746F73686F7020332E30003842494D040400000000008C1C015A00031B25471C0200000200021C0278004E617369616E20627573696E65737320776F6D616E207769746820612062696720736D696C6520686F6C64696E67206120666F6C646572206F76
33          214               761597760                      NULL                                 11                Alejandro                                          McGuel                                             E                                                  0         Production Technician - WC40                       2014-07-06 1999-07-05 adventure-works\alejandro0                                                                                                                                                                                                                                       alejandro0@adventure-works.com                     668-555-0130              S             Alejandro McGuel                                   668-555-0130              0            M      1            15,00                 52            46             1           0               Production                                         2014-07-06 NULL       Current                                            0xFFD8FFE000104A46494600010101006000600000FFDB0043000201010201010202020202020202030503030303030604040305070607070706070708090B0908080A0807070A0D0A0A0B0C0C0C0C07090E0F0D0C0E0B0C0C0CFFDB004301020202030303060303060C0807080C0C0C0C0C0C0C0C0C0C0C0C0C0C0C0C0C0C0C
34          188               271438431                      NULL                                 11                Garrett                                            Young                                              R                                                  0         Production Technician - WC30                       2014-07-07 1995-03-25 adventure-works\garrett0                                                                                                                                                                                                                                         garrett0@adventure-works.com                       609-555-0179              S             Garrett Young                                      609-555-0179              0            M      1            9,50                  34            37             1           0               Production                                         2014-07-07 NULL       Current                                            0xFFD8FFE000104A46494600010101004800480000FFED014A50686F746F73686F7020332E30003842494D040400000000012D1C015A00031B25471C0200000200021C021900104E65772050726F6475637420496465611C0219001D546573742044726976656E20446576656C6F706D656E742028544444291C0219000F4E65
35          138               160739235                      NULL                                 11                Jian Shuo                                          Wang                                               NULL                                               0         Production Technician - WC30                       2014-07-07 1994-02-24 adventure-works\jianshuo0                                                                                                                                                                                                                                        jianshuo0@adventure-works.com                      952-555-0178              S             Jian Shuo Wang                                     952-555-0178              0            M      1            9,50                  36            38             1           0               Production                                         2014-07-07 NULL       Current                                            0xFFD8FFE000104A46494600010101012C012C0000FFED01E250686F746F73686F7020332E30003842494D04040000000001C61C015A00031B25471C0200000200021C02780037436C6F73657570206F66206120636865657266756C20796F756E6720627573696E6573736D616E2077656172696E6720676C61737365731C02
36          87                586486572                      NULL                                 11                Susan                                              Eaton                                              W                                                  0         Stocker                                            2014-07-07 1988-09-17 adventure-works\susan0                                                                                                                                                                                                                                           susan0@adventure-works.com                         943-555-0196              S             Susan Eaton                                        943-555-0196              0            F      1            9,00                  97            68             1           0               Shipping and Receiving                             2014-07-07 NULL       Current                                            0xFFD8FFE000104A46494600010101012C012C0000FFED019850686F746F73686F7020332E30003842494D040400000000017B1C015A00031B25471C0200000200021C0278002D412073686F74206F66206120796F756E6720616E642062656175746966756C20627573696E657373776F6D616E1C0205001742656175746966
37          87                337752649                      NULL                                 11                Vamsi                                              Kuppa                                              N                                                  0         Shipping and Receiving Clerk                       2014-07-07 1987-10-16 adventure-works\vamsi0                                                                                                                                                                                                                                           vamsi0@adventure-works.com                         937-555-0137              M             Vamsi Kuppa                                        937-555-0137              0            M      2            9,50                  95            67             1           0               Shipping and Receiving                             2014-07-07 NULL       Current                                            0xFFD8FFE000104A46494600010101012C012C0000FFED01B050686F746F73686F7020332E30003842494D04040000000001941C015A00031B25471C0200000200021C026900346D6F6465726E20706F727472616974206F662061207375636365737366756C20736D696C696E6720627573696E6573736D616E201C0205001C
38          40                113695504                      NULL                                 11                Alice                                              Ciccu                                              O                                                  0         Production Technician - WC50                       2014-07-07 1988-08-26 adventure-works\alice0                                                                                                                                                                                                                                           alice0@adventure-works.com                         333-555-0173              M             Alice Ciccu                                        333-555-0173              0            F      1            11,00                 95            67             1           0               Production                                         2014-07-07 NULL       Current                                            0xFFD8FFE000104A46494600010101004800480000FFDB0043000201010201010202020202020202030503030303030604040305070607070706070708090B0908080A0807070A0D0A0A0B0C0C0C0C07090E0F0D0C0E0B0C0C0CFFDB004301020202030303060303060C0807080C0C0C0C0C0C0C0C0C0C0C0C0C0C0C0C0C0C0C
39          9                 276751903                      NULL                                 11                Simon                                              Rapier                                             D                                                  0         Production Technician - WC60                       2014-07-08 2000-12-15 adventure-works\simon0                                                                                                                                                                                                                                           simon0@adventure-works.com                         963-555-0134              S             Simon Rapier                                       963-555-0134              0            M      1            12,45                 38            39             1           0               Production                                         2014-07-08 NULL       Current                                            0xFFD8FFE000104A46494600010101004800480000FFDB0043000201010201010202020202020202030503030303030604040305070607070706070708090B0908080A0807070A0D0A0A0B0C0C0C0C07090E0F0D0C0E0B0C0C0CFFDB004301020202030303060303060C0807080C0C0C0C0C0C0C0C0C0C0C0C0C0C0C0C0C0C0C
40          23                630184120                      NULL                                 11                Jinghao                                            Liu                                                K                                                  0         Production Supervisor - WC50                       2014-07-08 1999-09-05 adventure-works\jinghao0                                                                                                                                                                                                                                         jinghao0@adventure-works.com                       794-555-0159              S             Jinghao Liu                                        794-555-0159              0            M      2            25,00                 77            58             1           0               Production                                         2014-07-08 NULL       Current                                            0xFFD8FFE000104A4649460001010100F000F00000FFE10C5C4578696600004D4D002A00000008000A010F00020000000600000086011000020000000D0000008C011200030000000100010000011A0005000000010000009A011B000500000001000000A2012800030000000100020000013100020000001C000000AA013200
41          186               545337468                      NULL                                 11                Michael                                            Hines                                              T                                                  0         Production Technician - WC20                       2014-07-09 2000-12-15 adventure-works\michael0                                                                                                                                                                                                                                         michael0@adventure-works.com                       218-555-0126              S             Michael Hines                                      218-555-0126              0            M      1            14,00                 20            30             1           0               Production                                         2014-07-09 NULL       Current                                            0xFFD8FFE000104A46494600010101004800480000FFDB0043000201010201010202020202020202030503030303030604040305070607070706070708090B0908080A0807070A0D0A0A0B0C0C0C0C07090E0F0D0C0E0B0C0C0CFFDB004301020202030303060303060C0807080C0C0C0C0C0C0C0C0C0C0C0C0C0C0C0C0C0C0C
42          163               713403643                      NULL                                 11                Yvonne                                             McKay                                              S                                                  0         Production Technician - WC45                       2014-07-09 1999-11-13 adventure-works\yvonne0                                                                                                                                                                                                                                          yvonne0@adventure-works.com                        286-555-0189              M             Yvonne McKay                                       286-555-0189              0            F      1            10,00                 79            59             1           0               Production                                         2014-07-09 NULL       Current                                            0xFFD8FFE000104A46494600010101012C012C0000FFED018E50686F746F73686F7020332E30003842494D04040000000001721C015A00031B25471C0200000200021C02780018636F6E666964656E7420627573696E65737320776F6D616E1C020500165072697363696C6C6120627573696E657373203032331C0237000832
43          204               885055826                      NULL                                 11                Peng                                               Wu                                                 J                                                  0         Quality Assurance Supervisor                       2014-07-09 1986-10-17 adventure-works\peng0                                                                                                                                                                                                                                            peng0@adventure-works.com                          164-555-0164              M             Peng Wu                                            164-555-0164              1            M      2            21,6346               81            60             1           0               Quality Assurance                                  2014-07-09 NULL       Current                                            0xFFD8FFE000104A46494600010101004800480000FFED014C50686F746F73686F7020332E30003842494D040400000000012F1C015A00031B25471C0200000200021C0278003D4578656375746976652072656C6178656420616E6420736D696C696E672066726F6D2068697320636F6E666572656E6365207461626C652073
44          112               441044382                      NULL                                 11                Jean                                               Trenary                                            E                                                  0         Information Services Manager                       2014-07-11 1986-07-13 adventure-works\jean0                                                                                                                                                                                                                                            jean0@adventure-works.com                          685-555-0120              S             Jean Trenary                                       685-555-0120              1            F      2            50,4808               65            52             1           0               Information Services                               2014-07-11 NULL       Current                                            0xFFD8FFE000104A46494600010101012C012C0000FFED1C5450686F746F73686F7020332E30003842494D04040000000002DB1C0200000200021C02780047506F727472616974206F6620612073656E696F72206D617475726520627573696E65737320776F6D616E20706F73696E67206F766572207768697465206261636B
45          76                718299860                      NULL                                 11                Russell                                            Hunter                                             NULL                                               0         Production Technician - WC50                       2014-07-12 1983-06-25 adventure-works\russell0                                                                                                                                                                                                                                         russell0@adventure-works.com                       786-555-0144              M             Russell Hunter                                     786-555-0144              0            M      1            11,00                 6             23             1           0               Production                                         2014-07-12 NULL       Current                                            0xFFD8FFE000104A46494600010101004800480000FFDB0043000201010201010202020202020202030503030303030604040305070607070706070708090B0908080A0807070A0D0A0A0B0C0C0C0C07090E0F0D0C0E0B0C0C0CFFDB004301020202030303060303060C0807080C0C0C0C0C0C0C0C0C0C0C0C0C0C0C0C0C0C0C
46          23                685233686                      NULL                                 11                A. Scott                                           Wright                                             NULL                                               0         Master Scheduler                                   2014-07-12 1979-04-17 adventure-works\ascott0                                                                                                                                                                                                                                          ascott0@adventure-works.com                        992-555-0194              S             A. Scott Wright                                    992-555-0194              0            M      2            23,5577               44            42             1           0               Production Control                                 2014-07-12 NULL       Current                                            0xFFD8FFE000104A46494600010101012C012C0000FFED013450686F746F73686F7020332E30003842494D04040000000001171C015A00031B25471C0200000200021C0278001D427573696E657373206D616E207769746820612062696720736D696C651C0205000E467269656E646C7920536D696C651C0219000233471C02
47          214               295971920                      NULL                                 11                Fred                                               Northup                                            T                                                  0         Production Technician - WC40                       2014-07-12 2000-01-23 adventure-works\fred0                                                                                                                                                                                                                                            fred0@adventure-works.com                          818-555-0192              S             Fred Northup                                       818-555-0192              0            M      1            15,00                 47            43             1           0               Production                                         2014-07-12 NULL       Current                                            0xFFD8FFE000104A46494600010101004800480000FFDB0043000201010201010202020202020202030503030303030604040305070607070706070708090B0908080A0807070A0D0A0A0B0C0C0C0C07090E0F0D0C0E0B0C0C0CFFDB004301020202030303060303060C0807080C0C0C0C0C0C0C0C0C0C0C0C0C0C0C0C0C0C0C
48          7                 95958330                       NULL                                 11                Sariya                                             Harnpadoungsataya                                  E                                                  0         Marketing Specialist                               2014-07-12 1997-12-19 adventure-works\sariya0                                                                                                                                                                                                                                          sariya0@adventure-works.com                        399-555-0176              S             Sariya Harnpadoungsataya                           399-555-0176              0            M      2            14,4231               45            42             1           0               Marketing                                          2014-07-12 NULL       Current                                            0xFFD8FFE000104A46494600010101004800480000FFDB0043000201010201010202020202020202030503030303030604040305070607070706070708090B0908080A0807070A0D0A0A0B0C0C0C0C07090E0F0D0C0E0B0C0C0CFFDB004301020202030303060303060C0807080C0C0C0C0C0C0C0C0C0C0C0C0C0C0C0C0C0C0C
49          32                332040978                      NULL                                 11                Willis                                             Johnson                                            T                                                  0         Recruiter                                          2014-07-13 1989-02-15 adventure-works\willis0                                                                                                                                                                                                                                          willis0@adventure-works.com                        778-555-0141              S             Willis Johnson                                     778-555-0141              0            M      2            18,2692               49            44             1           0               Human Resources                                    2014-07-13 NULL       Current                                            0xFFD8FFE000104A46494600010101004800480000FFED01D650686F746F73686F7020332E30003842494D04040000000001BA1C015A00031B25471C0200000200021C0278005C506F727472616974206F66206120636F6E666964656E7420627573696E6573736D616E207374616E64696E6720776974682061726D73206372
50          40                857651804                      NULL                                 11                Jun                                                Cao                                                T                                                  0         Production Technician - WC50                       2014-07-14 1990-02-03 adventure-works\jun0                                                                                                                                                                                                                                             jun0@adventure-works.com                           299-555-0113              S             Jun Cao                                            299-555-0113              0            M      1            11,00                 90            65             1           0               Production                                         2014-07-14 NULL       Current                                            0xFFD8FFE000104A46494600010101004800480000FFED012A50686F746F73686F7020332E30003842494D040400000000010D1C015A00031B25471C0200000200021C02780032627573696E6573736D616E20696E206120737569742069736F6C61746564206F6E207768697465206261636B67726F756E641C027A000F456C
51          222               553069203                      NULL                                 11                Christian                                          Kleinerman                                         E                                                  0         Maintenance Supervisor                             2014-07-14 1986-08-18 adventure-works\christian0                                                                                                                                                                                                                                       christian0@adventure-works.com                     846-555-0157              M             Christian Kleinerman                               846-555-0157              1            M      2            20,4327               92            66             1           0               Facilities and Maintenance                         2014-07-14 NULL       Current                                            0xFFD8FFE000104A46494600010101012C012C0000FFED015A50686F746F73686F7020332E30003842494D040400000000013E1C015A00031B25471C0200000200021C0205000C50726F66657373696F6E616C1C0219000343524D1C0219000B456C656374726F6E6963731C02190011536F6369616C204E6574776F726B696E
52          188               351069889                      NULL                                 11                Susan                                              Metters                                            A                                                  0         Production Technician - WC30                       2014-07-14 1993-10-31 adventure-works\susan1                                                                                                                                                                                                                                           susan1@adventure-works.com                         639-555-0164              S             Susan Metters                                      639-555-0164              0            F      1            9,50                  31            35             1           0               Production                                         2014-07-14 NULL       Current                                            0xFFD8FFE000104A46494600010101004800480000FFED01CA50686F746F73686F7020332E30003842494D04040000000001AE1C015A00031B25471C0200000200021C02780042486170707920796F756E67204166726963616E20416D65726963616E20627573696E65737320776F6D616E20776F726B696E67207769746820
53          23                370989364                      NULL                                 11                Reuben                                             D'sa                                               H                                                  0         Production Supervisor - WC40                       2014-07-15 1998-03-27 adventure-works\reuben0                                                                                                                                                                                                                                          reuben0@adventure-works.com                        191-555-0112              M             Reuben D'sa                                        191-555-0112              0            M      2            25,00                 72            56             1           0               Production                                         2014-07-15 NULL       Current                                            0xFFD8FFE000104A46494600010101004800480000FFDB0043000201010201010202020202020202030503030303030604040305070607070706070708090B0908080A0807070A0D0A0A0B0C0C0C0C07090E0F0D0C0E0B0C0C0CFFDB004301020202030303060303060C0807080C0C0C0C0C0C0C0C0C0C0C0C0C0C0C0C0C0C0C
54          126               275962311                      NULL                                 11                Kirk                                               Koenigsbauer                                       J                                                  0         Production Technician - WC45                       2014-07-15 1995-09-06 adventure-works\kirk0                                                                                                                                                                                                                                            kirk0@adventure-works.com                          669-555-0150              S             Kirk Koenigsbauer                                  669-555-0150              0            M      1            10,00                 74            57             1           0               Production                                         2014-07-15 NULL       Current                                            0xFFD8FFE000104A46494600010101004800480000FFED01B050686F746F73686F7020332E30003842494D04040000000001941C015A00031B25471C0200000200021C0278003B436F6E666964656E74206D617475726520627573696E657373206D616E20736D696C696E67206F766572207768697465206261636B67726F75
55          20                36151748                       NULL                                 11                David                                              Ortiz                                              J                                                  0         Production Technician - WC60                       2014-07-15 1995-07-29 adventure-works\david2                                                                                                                                                                                                                                           david2@adventure-works.com                         712-555-0119              M             David Ortiz                                        712-555-0119              0            M      1            12,45                 33            36             1           0               Production                                         2014-07-15 NULL       Current                                            0xFFD8FFE000104A46494600010101012C012C0000FFED010050686F746F73686F7020332E30003842494D04040000000000E31C015A00031B25471C0200000200021C0278003B416E20496E6469616E206D616E207468696E6B696E67207768696C652073697474696E6720696E2066726F6E74206F6620686973206C617074
56          92                540688287                      NULL                                 11                Tengiz                                             Kharatishvili                                      N                                                  0         Control Specialist                                 2014-07-16 2000-11-26 adventure-works\tengiz0                                                                                                                                                                                                                                          tengiz0@adventure-works.com                        910-555-0116              S             Tengiz Kharatishvili                               910-555-0116              0            M      2            16,8269               76            58             1           0               Document Control                                   2014-07-16 NULL       Current                                            0xFFD8FFE000104A46494600010101015E015E0000FFED00D850686F746F73686F7020332E30003842494D04040000000000BC1C015A00031B25471C0200000200021C0278004B476F6F64206C6F6F6B696E6720617369616E20627573696E657373206D616E207374616E64696E67207769746820666F726D616C2073756974
57          147               568596888                      NULL                                 11                Hanying                                            Feng                                               P                                                  0         Production Technician - WC20                       2014-07-16 1985-05-16 adventure-works\hanying0                                                                                                                                                                                                                                         hanying0@adventure-works.com                       319-555-0139              S             Hanying Feng                                       319-555-0139              0            M      1            14,00                 15            27             1           0               Production                                         2014-07-16 NULL       Current                                            0xFFD8FFE000104A46494600010101006000600000FFDB0043000201010201010202020202020202030503030303030604040305070607070706070708090B0908080A0807070A0D0A0A0B0C0C0C0C07090E0F0D0C0E0B0C0C0CFFDB004301020202030303060303060C0807080C0C0C0C0C0C0C0C0C0C0C0C0C0C0C0C0C0C0C
58          214               918737118                      NULL                                 11                Kevin                                              Liu                                                H                                                  0         Production Technician - WC40                       2014-07-17 1996-07-25 adventure-works\kevin1                                                                                                                                                                                                                                           kevin1@adventure-works.com                         714-555-0138              S             Kevin Liu                                          714-555-0138              0            M      1            15,00                 58            49             1           0               Production                                         2014-07-17 NULL       Current                                            0xFFD8FFE000104A46494600010101012C012C0000FFED015050686F746F73686F7020332E30003842494D04040000000001331C015A00031B25471C0200000200021C0237000832303038303431331C021900104E65772050726F6475637420496465611C0219001D546573742044726976656E20446576656C6F706D656E74
59          18                801758002                      NULL                                 11                Annik                                              Stahl                                              O                                                  0         Production Technician - WC60                       2014-07-17 1987-07-26 adventure-works\annik0                                                                                                                                                                                                                                           annik0@adventure-works.com                         499-555-0125              M             Annik Stahl                                        499-555-0125              0            M      1            12,45                 17            28             1           0               Production                                         2014-07-17 NULL       Current                                            0xFFD8FFE000104A46494600010101012C012C0000FFED00CE50686F746F73686F7020332E30003842494D04040000000000901C015A00031B25471C0200000200021C02780037506F727472616974206F6620616E204166726963616E20416D65726963616E20627573696E657373206D616E20696E206120737569742E1C02
60          40                415823523                      NULL                                 11                Suroor                                             Fatima                                             R                                                  0         Production Technician - WC50                       2014-07-17 1988-09-25 adventure-works\suroor0                                                                                                                                                                                                                                          suroor0@adventure-works.com                        932-555-0161              S             Suroor Fatima                                      932-555-0161              0            M      1            11,00                 93            66             1           0               Production                                         2014-07-17 NULL       Current                                            0xFFD8FFE000104A46494600010101012C012C0000FFED004050686F746F73686F7020332E30003842494D04040000000000241C015A00031B25471C0200000200021C02500010536F706869612054736962696B616B69FFDB004300020101020101020202020202020203050303030303060404030507060707070607070809
61          142               363923697                      NULL                                 11                Deborah                                            Poe                                                E                                                  0         Accounts Receivable Specialist                     2014-07-18 1986-10-05 adventure-works\deborah0                                                                                                                                                                                                                                         deborah0@adventure-works.com                       602-555-0194              M             Deborah Poe                                        602-555-0194              0            F      2            19,00                 60            50             1           0               Finance                                            2014-07-18 NULL       Current                                            0xFFD8FFE000104A46494600010101004800480000FFED017850686F746F73686F7020332E30003842494D040400000000015C1C015A00031B25471C0200000200021C027800474120636F6E666964656E74206D617475726520627573696E65737320776F6D616E20776974682068616E647320666F6C646564206F6E207768
62          76                674171828                      NULL                                 11                Jim                                                Scardelis                                          H                                                  0         Production Technician - WC50                       2014-07-19 1997-04-08 adventure-works\jim0                                                                                                                                                                                                                                             jim0@adventure-works.com                           679-555-0113              M             Jim Scardelis                                      679-555-0113              0            M      1            11,00                 1             20             1           0               Production                                         2014-07-19 NULL       Current                                            0x89504E470D0A1A0A0000000D49484452000000A90000009F080600000082F6F99F000000017352474200AECE1CE90000000467414D410000B18F0BFC6105000000097048597300000EC400000EC401952B0E1B0000AA0949444154785ED5BDE9AF66E975DD77EACE63CD43CF039B14296AA22C59F29409090CF84B3E24C887
63          177               138280935                      NULL                                 11                Carole                                             Poland                                             M                                                  0         Production Technician - WC30                       2014-07-19 1994-05-19 adventure-works\carole0                                                                                                                                                                                                                                          carole0@adventure-works.com                        688-555-0192              M             Carole Poland                                      688-555-0192              0            F      1            9,50                  42            41             1           0               Production                                         2014-07-19 NULL       Current                                            0xFFD8FFE000104A4649460001010100B400B40000FFDB0043000201010201010202020202020202030503030303030604040305070607070706070708090B0908080A0807070A0D0A0A0B0C0C0C0C07090E0F0D0C0E0B0C0C0CFFDB004301020202030303060303060C0807080C0C0C0C0C0C0C0C0C0C0C0C0C0C0C0C0C0C0C
64          188               476115505                      NULL                                 11                George                                             Li                                                 Z                                                  0         Production Technician - WC30                       2014-07-21 1987-11-14 adventure-works\george0                                                                                                                                                                                                                                          george0@adventure-works.com                        518-555-0199              M             George Li                                          518-555-0199              0            M      1            9,50                  26            33             1           0               Production                                         2014-07-21 NULL       Current                                            0xFFD8FFE000104A46494600010101012C012C0000FFED013A50686F746F73686F7020332E30003842494D040400000000011D1C015A00031B25471C0200000200021C0278002A5374616E64696E6720627573696E6573736D616E20736D696C696E67206174207468652063616D6572611C02050021427573696E6573736D61
65          89                502058701                      NULL                                 11                Gary                                               Yukish                                             W                                                  0         Production Technician - WC40                       2014-07-22 1998-12-15 adventure-works\gary0                                                                                                                                                                                                                                            gary0@adventure-works.com                          901-555-0125              S             Gary Yukish                                        901-555-0125              0            M      1            15,00                 69            54             1           0               Production                                         2014-07-22 NULL       Current                                            0xFFD8FFE000104A46494600010101004800480000FFED01D650686F746F73686F7020332E30003842494D04040000000001BA1C015A00031B25471C0200000200021C02780039436C6F73657570206F66206120686170707920796F756E67206D616E2069736F6C61746564206F6E207768697465206261636B67726F756E64
66          23                7201901                        NULL                                 11                Cristian                                           Petculescu                                         K                                                  0         Production Supervisor - WC10                       2014-07-22 1994-11-10 adventure-works\cristian0                                                                                                                                                                                                                                        cristian0@adventure-works.com                      434-555-0133              M             Cristian Petculescu                                434-555-0133              0            M      2            25,00                 67            53             1           0               Production                                         2014-07-22 NULL       Current                                            0xFFD8FFE000104A46494600010101004800480000FFDB0043000201010201010202020202020202030503030303030604040305070607070706070708090B0908080A0807070A0D0A0A0B0C0C0C0C07090E0F0D0C0E0B0C0C0CFFDB004301020202030303060303060C0807080C0C0C0C0C0C0C0C0C0C0C0C0C0C0C0C0C0C0C
67          147               97728960                       NULL                                 11                Raymond                                            Sam                                                K                                                  0         Production Technician - WC20                       2014-07-23 1977-09-30 adventure-works\raymond0                                                                                                                                                                                                                                         raymond0@adventure-works.com                       226-555-0197              M             Raymond Sam                                        226-555-0197              0            M      1            14,00                 10            25             1           0               Production                                         2014-07-23 NULL       Current                                            0xFFD8FFE000104A46494600010101004800480000FFED01DE50686F746F73686F7020332E30003842494D04040000000001C21C015A00031B25471C0200000200021C02780046506F727472616974206F6620612068617070792068616E64736F6D6520627573696E657373206D616E20776974682068616E647320666F6C64
68          44                525932996                      NULL                                 11                Janaina                                            Bueno                                              Barreiro Gambaro                                   0         Application Specialist                             2014-07-23 1995-08-30 adventure-works\janaina0                                                                                                                                                                                                                                         janaina0@adventure-works.com                       623-555-0155              M             Janaina Bueno                                      623-555-0155              1            F      2            27,4038               71            55             1           0               Information Services                               2014-07-23 NULL       Current                                            0xFFD8FFE000104A46494600010101012C012C0000FFE10F864578696600004D4D002A00000008000A010E00020000004700000086010F000200000012000000CE011000020000000A000000E0011200030000000100010000011A000500000001000000EA011B000500000001000000F2012800030000000100020000013100
69          16                843479922                      NULL                                 11                Bob                                                Hohman                                             N                                                  0         Production Technician - WC50                       2014-07-24 1990-03-16 adventure-works\bob0                                                                                                                                                                                                                                             bob0@adventure-works.com                           611-555-0116              S             Bob Hohman                                         611-555-0116              0            M      1            11,00                 12            26             1           0               Production                                         2014-07-24 NULL       Current                                            0xFFD8FFE000104A46494600010101006000600000FFDB0043000201010201010202020202020202030503030303030604040305070607070706070708090B0908080A0807070A0D0A0A0B0C0C0C0C07090E0F0D0C0E0B0C0C0CFFDB004301020202030303060303060C0807080C0C0C0C0C0C0C0C0C0C0C0C0C0C0C0C0C0C0C
70          214               370487086                      NULL                                 11                Shammi                                             Mohamed                                            G                                                  0         Production Technician - WC40                       2014-07-24 1991-05-04 adventure-works\shammi0                                                                                                                                                                                                                                          shammi0@adventure-works.com                        793-555-0179              M             Shammi Mohamed                                     793-555-0179              0            M      1            15,00                 53            46             1           0               Production                                         2014-07-24 NULL       Current                                            0xFFD8FFE000104A46494600010101004800480000FFDB0043000201010201010202020202020202030503030303030604040305070607070706070708090B0908080A0807070A0D0A0A0B0C0C0C0C07090E0F0D0C0E0B0C0C0CFFDB004301020202030303060303060C0807080C0C0C0C0C0C0C0C0C0C0C0C0C0C0C0C0C0C0C
71          40                54759846                       NULL                                 11                Linda                                              Moschell                                           K                                                  0         Production Technician - WC50                       2014-07-25 1998-02-14 adventure-works\linda0                                                                                                                                                                                                                                           linda0@adventure-works.com                         612-555-0171              M             Linda Moschell                                     612-555-0171              0            F      1            11,00                 96            68             1           0               Production                                         2014-07-25 NULL       Current                                            0xFFD8FFE000104A46494600010101012C012C0000FFED011450686F746F73686F7020332E30003842494D04040000000000F71C015A00031B25471C0200000200021C0278004362656175746966756C20627573696E65737320776F6D616E20706F727472616974202D20736D696C696E67206F766572206120776869746520
72          32                619308550                      NULL                                 11                Mindy                                              Martin                                             C                                                  0         Benefits Specialist                                2014-07-25 1995-06-20 adventure-works\mindy0                                                                                                                                                                                                                                           mindy0@adventure-works.com                         522-555-0147              M             Mindy Martin                                       522-555-0147              0            F      2            16,5865               51            45             1           0               Human Resources                                    2014-07-25 NULL       Current                                            0xFFD8FFE000104A46494600010101004800480000FFED01AE50686F746F73686F7020332E30003842494D04040000000001911C015A00031B25471C0200000200021C025000242020202020202020202020202020202020202020202020202020202020202020202020201C021900104E65772050726F647563742049646561
73          143               121491555                      NULL                                 11                Wendy                                              Kahn                                               Beth                                               0         Finance Manager                                    2014-07-25 1995-05-11 adventure-works\wendy0                                                                                                                                                                                                                                           wendy0@adventure-works.com                         248-555-0134              S             Wendy Kahn                                         248-555-0134              1            F      2            43,2692               55            47             1           0               Finance                                            2014-07-25 NULL       Current                                            0xFFD8FFE000104A46494600010101012C012C0000FFED014A50686F746F73686F7020332E30003842494D040400000000012D1C015A00031B25471C0200000200021C0219000343524D1C0219000B456C656374726F6E6963731C02190011536F6369616C204E6574776F726B696E671C0219000E4469676974616C2043616D
74          87                420776180                      NULL                                 11                Kim                                                Ralls                                              T                                                  0         Stocker                                            2014-07-26 1994-11-29 adventure-works\kim0                                                                                                                                                                                                                                             kim0@adventure-works.com                           309-555-0129              S             Kim Ralls                                          309-555-0129              0            F      1            9,00                  98            69             1           0               Shipping and Receiving                             2014-07-26 NULL       Current                                            0xFFD8FFE000104A46494600010101012C012C0000FFED00BE50686F746F73686F7020332E30003842494D04040000000000A21C015A00031B25471C0200000200021C0278003350686F746F206F6620796F756E67207375636365737366756C20627573696E657373776F6D616E207769746820666F6C6465721C0250001041
75          138               604664374                      NULL                                 11                Sandra                                             Reátegui Alayo                                     NULL                                               0         Production Technician - WC30                       2014-07-26 1986-06-05 adventure-works\sandra0                                                                                                                                                                                                                                          sandra0@adventure-works.com                        896-555-0168              M             Sandra Reátegui Alayo                              896-555-0168              0            F      1            9,50                  37            38             1           0               Production                                         2014-07-26 NULL       Current                                            0xFFD8FFE000104A4649460001010100B400B40000FFED023250686F746F73686F7020332E30003842494D04040000000002151C015A00031B25471C0200000200021C0250001C50686F746F677261706865723A204A61636F6D205374657068656E731C02550013417669642043726561746976652C20496E632E1C026E0031
76          23                778552911                      NULL                                 11                Kok-Ho                                             Loh                                                T                                                  0         Production Supervisor - WC50                       2014-07-27 1990-11-27 adventure-works\kok-ho0                                                                                                                                                                                                                                          kok-ho0@adventure-works.com                        999-555-0155              S             Kok-Ho Loh                                         999-555-0155              0            M      2            25,00                 78            59             1           0               Production                                         2014-07-27 NULL       Current                                            0xFFD8FFE000104A46494600010101006000600000FFDB0043000201010201010202020202020202030503030303030604040305070607070706070708090B0908080A0807070A0D0A0A0B0C0C0C0C07090E0F0D0C0E0B0C0C0CFFDB004301020202030303060303060C0807080C0C0C0C0C0C0C0C0C0C0C0C0C0C0C0C0C0C0C
